:020000040800F2
:1000000000280020850C0008290C00082F0C00088F
:10001000350C00083B0C0008410C000800000000F3
:10002000000000000000000000000000470C000875
:10003000530C0008000000005F0C00086B0C000867
:10004000CD0C0008CD0C0008CD0C0008CD0C00082C
:10005000CD0C0008CD0C0008CD0C0008CD0C00081C
:10006000CD0C0008CD0C0008CD0C0008CD0C00080C
:10007000CD0C0008CD0C0008CD0C0008CD0C0008FC
:10008000CD0C0008CD0C0008CD0C0008CD0C0008EC
:10009000CD0C0008CD0C0008CD0C0008CD0C0008DC
:1000A000CD0C0008CD0C0008CD0C0008CD0C0008CC
:1000B000CD0C0008CD0C000800000000CD0C00089D
:1000C000CD0C00080000000000000000CD0C00086E
:1000D00000000000CD0C0008CD0C0008000000005E
:1000E000CD0C0008CD0C0008CD0C0008000000006D
:1000F0000000000000000000000000000000000000
:0C01000000000000000000005FF808F1A3
:10010C0010B5054C237833B9044B13B10448AFF345
:10011C0000800123237010BD0C00002000000000A3
:10012C00D81A000808B5034B1BB103490348AFF3B9
:10013C00008008BD0000000010000020D81A000844
:10014C0080B582B000AF7860C7F800C07B68092B1F
:10015C0000F2808101A252F823F000BF9101000847
:10016C00D90100082102000869020008B102000848
:10017C00F90200084103000889030008D1030008B4
:10018C001904000800220121B44801F07FF8002274
:10019C000221B24801F07AF800220421AF4801F0A4
:1001AC0075F800220821AD4801F070F800221021EA
:1001BC00AA4801F06BF800222021A84801F066F84B
:1001CC0001224021A54801F061F843E101220121FF
:1001DC00A24801F05BF800220221A04801F056F879
:1001EC00002204219D4801F051F8012208219B486E
:1001FC0001F04CF801221021984801F047F8012237
:10020C002021964801F042F801224021934801F048
:10021C003DF81FE100220121904801F037F800223F
:10022C0002218E4801F032F8012204218B4801F0A2
:10023C002DF800220821894801F028F8002210210D
:10024C00864801F023F801222021844801F01EF891
:10025C0000224021814801F019F8FBE00022012125
:10026C007E4801F013F8002202217C4801F00EF8C0
:10027C0000220421794801F009F80022082177486E
:10028C0001F004F801221021744800F0FFFF012254
:10029C002021724800F0FAFF002240216F4800F044
:1002AC00F5FFD7E0012201216C4800F0EFFF00229E
:1002BC0002216A4800F0EAFF00220421674800F09E
:1002CC00E5FF01220821654800F0E0FF0122102122
:1002DC00624800F0DBFF00222021604800F0D6FFCE
:1002EC00002240215D4800F0D1FFB3E00022012143
:1002FC005A4800F0CBFF01220221584800F0C6FFFB
:10030C0000220421554800F0C1FF00220821534867
:10031C0000F0BCFF01221021504800F0B7FF002272
:10032C0020214E4800F0B2FF002240214B4800F043
:10033C00ADFF8FE000220121484800F0A7FF012209
:10034C000221464800F0A2FF00220421434800F09D
:10035C009DFF00220821414800F098FF0022102147
:10036C003E4800F093FF002220213C4800F08EFF15
:10037C0000224021394800F089FF6BE00022012166
:10038C00364800F083FF00220221344800F07EFF43
:10039C0000220421314800F079FF012208212F4866
:1003AC0000F074FF012210212C4800F06FFF012295
:1003BC0020212A4800F06AFF01224021274800F042
:1003CC0065FF47E000220121244800F05FFF002276
:1003DC000221224800F05AFF002204211F4800F09D
:1003EC0055FF002208211D4800F050FF002210216B
:1003FC001A4800F04BFF00222021184800F046FF5D
:10040C0000224021154800F041FF23E00022012189
:10041C00124800F03BFF00220221104800F036FF8A
:10042C00002204210D4800F031FF002208210B4866
:10043C0000F02CFF01221021084800F027FF0022B9
:10044C002021064800F022FF00224021034800F042
:10045C001DFF00BF00BF0837BD4680BD000C01402A
:10046C0080B586B000AF07F120037B6000F02AFC5A
:10047C0000F00AFB00F044FB03237B6101233B618A
:10048C000323FB600523BB603B1D9C4600F0CEFAAA
:10049C003B1D9C4600F09CFA7B69032B41D07B6989
:1004AC00032B5FDC7B69012B03D07B69022B1CD0F7
:1004BC0058E0FB685A1EFA603A1D9446184600F044
:1004CC00BBF801224FF480615A4800F0DFFE002295
:1004DC004FF40071574800F0D9FEFB68002B3CDA52
:1004EC000323FB6003237B6137E0FB685A1EFA6031
:1004FC003A1D9446184600F09FF801224FF4006113
:10050C004C4800F0C3FE00224FF48061494800F0D3
:10051C00BDFEFB68002B22DA0523FB6001237B6107
:10052C001DE0FB685A1EFA603A1D9446184600F00E
:10053C0083F801224FF400713E4800F0A7FE002220
:10054C004FF400613B4800F0A1FEFB68002B08DA79
:10055C000223FB6002237B6103E000BF02E000BFCB
:10056C0000E000BF3B69032B3ED03B69032B5BDCF7
:10057C003B69012B03D03B69022B1AD054E0BB68BA
:10058C005A1EBA603A1D94461846FFF7D9FD01224F
:10059C008021284800F07AFE00224021254800F0F6
:1005AC0075FEBB68002B3ADA0323BB6003233B6167
:1005BC0035E0BB685A1EBA603A1D94461846FFF7E0
:1005CC00BFFD01224FF480711A4800F05FFE00223B
:1005DC008021184800F05AFEBB68002B21DA052355
:1005EC00BB6001233B611CE0BB685A1EBA603A1D1C
:1005FC0094461846FFF7A4FD012240210D4800F057
:10060C0045FE00224FF480710A4800F03FFEBB68A3
:10061C00002B08DA0223BB6002233B6103E000BF1E
:10062C0002E000BF00E000BF4FF47A7000F0ACFBBA
:10063C0032E700BF0008014080B582B000AF78609F
:10064C00C7F800C07B68092B00F2BC8101A252F8EC
:10065C0023F000BF89060008DD06000831070008FA
:10066C0085070008D90700082D0800088108000834
:10067C00D5080008290900087D09000800228021FE
:10068C00D24800F003FE00224FF48071CF4800F0F6
:10069C00FDFD00224FF40071CC4800F0F7FD002264
:1006AC004FF48061C94800F0F1FD00224FF4006165
:1006BC00C64800F0EBFD00224FF48051C34800F017
:1006CC00E5FD01224FF40051C04800F0DFFD79E157
:1006DC0001228021BD4800F0D9FD00224FF4807129
:1006EC00BA4800F0D3FD00224FF40071B74800F077
:1006FC00CDFD01224FF48061B44800F0C7FD01220A
:10070C004FF40061B14800F0C1FD01224FF480515B
:10071C00AE4800F0BBFD01224FF40051AB4800F095
:10072C00B5FD4FE100228021A84800F0AFFD00226A
:10073C004FF48071A54800F0A9FD01224FF400711F
:10074C00A24800F0A3FD00224FF480619F4800F006
:10075C009DFD00224FF400619C4800F097FD0122A2
:10076C004FF48051994800F091FD00224FF4005154
:10077C00964800F08BFD25E100228021934800F083
:10078C0085FD00224FF48071904800F07FFD00221F
:10079C004FF400718D4800F079FD00224FF4806118
:1007AC008A4800F073FD01224FF40061874800F085
:1007BC006DFD01224FF48051844800F067FD00224A
:1007CC004FF40051814800F061FDFBE001228021D3
:1007DC007E4800F05BFD00224FF480717B4800F0F6
:1007EC0055FD00224FF40071784800F04FFD0122B6
:1007FC004FF48061754800F049FD01224FF400610F
:10080C00724800F043FD00224FF480516F4800F015
:10081C003DFD00224FF400516C4800F037FDD1E053
:10082C0000228021694800F031FD01224FF48071D3
:10083C00664800F02BFD00224FF40071634800F075
:10084C0025FD00224FF48061604800F01FFD01225D
:10085C004FF400615D4800F019FD00224FF4805107
:10086C005A4800F013FD00224FF40051574800F095
:10087C000DFDA7E000228021544800F007FD012265
:10088C004FF48071514800F001FD00224FF40071CB
:10089C004E4800F0FBFC00224FF480614B4800F006
:1008AC00F5FC00224FF40061484800F0EFFC0022F8
:1008BC004FF48051454800F0E9FC00224FF4005100
:1008CC00424800F0E3FC7DE0002280213F4800F02C
:1008DC00DDFC00224FF480713C4800F0D7FC002274
:1008EC004FF40071394800F0D1FC01224FF48061C3
:1008FC00364800F0CBFC01224FF40061334800F085
:10090C00C5FC01224FF48051304800F0BFFC01229D
:10091C004FF400512D4800F0B9FC53E00022802127
:10092C002A4800F0B3FC00224FF48071274800F0F5
:10093C00ADFC00224FF40071244800F0A7FC00220B
:10094C004FF48061214800F0A1FC00224FF40061BB
:10095C001E4800F09BFC00224FF480511B4800F015
:10096C0095FC00224FF40051184800F08FFC29E050
:10097C0000228021154800F089FC00224FF4807180
:10098C00124800F083FC00224FF400710F4800F075
:10099C007DFC00224FF480610C4800F077FC0122B2
:1009AC004FF40061094800F071FC00224FF48051B3
:1009BC00064800F06BFC00224FF40051034800F095
:1009CC0065FC00BF00BF0837BD4680BD000C014070
:1009DC0080B582B000AFC7F804C0012201211248D3
:1009EC0000F054FC012202210F4800F04FFC0122C0
:1009FC0004210D4800F04AFC012208210A4800F0AD
:100A0C0045FC01221021084800F040FC0122202165
:100A1C00054800F03BFC01224021034800F036FC65
:100A2C0000BF0837BD4680BD000C014080B582B0C8
:100A3C0000AFC7F804C001224021124800F026FC88
:100A4C00012280210F4800F021FC01224FF480711B
:100A5C000C4800F01BFC01224FF40071094800F017
:100A6C0015FC01224FF48061064800F00FFC0122B6
:100A7C004FF48071034800F009FC00BF0837BD46F5
:100A8C0080BD00BF0008014080B590B000AF07F1F9
:100A9C00180328220021184601F010F83B1D0022F3
:100AAC001A605A609A60DA601A610223BB610123F2
:100ABC00BB621023FB6200237B6307F1180318460B
:100ACC0000F0FCFB0346002B01D000F06FF80F2365
:100ADC007B600023BB600023FB6000233B61002391
:100AEC007B613B1D0021184600F068FE0346002B7D
:100AFC0001D000F05BF800BF4037BD4680BD000060
:100B0C0080B586B000AF07F1080300221A605A6066
:100B1C009A60DA60224B9B69214A43F0040393618B
:100B2C001F4B9B6903F004037B607B681C4B9B6928
:100B3C001B4A43F008039361194B9B6903F00803AC
:100B4C003B603B6800224FF47F61164800F09EFB2F
:100B5C00002243F6FF71144800F098FB4FF47F63BA
:100B6C00BB600123FB6000233B6102237B6107F127
:100B7C00080319460B4800F00FFA43F6FF73BB60ED
:100B8C000123FB6000233B6102237B6107F1080317
:100B9C001946054800F000FA00BF1837BD4680BD65
:100BAC000010024000080140000C014080B400AF6E
:100BBC0072B600BFFEE7000080B485B000AF154BE5
:100BCC009B69144A43F001039361124B9B6903F038
:100BDC000103BB60BB680F4BDB690E4A43F08053CB
:100BEC00D3610C4BDB6903F080537B607B680A4B51
:100BFC005B68FB60FB6823F0E063FB60FB6843F021
:100C0C008063FB60044AFB68536000BF1437BD4629
:100C1C0080BC7047001002400000014080B400AF5F
:100C2C00FEE780B400AFFEE780B400AFFEE780B40F
:100C3C0000AFFEE780B400AFFEE780B400AF00BFAA
:100C4C00BD4680BC704780B400AF00BFBD4680BCC1
:100C5C00704780B400AF00BFBD4680BC704780B504
:100C6C0000AF00F075F800BF80BD80B400AF00BFCE
:100C7C00BD4680BC70470000FFF7F7FF0B480C49DE
:100C8C000C4A002302E0D458C4500433C4188C42DC
:100C9C00F9D3094A094C002301E013600432A24243
:100CAC00FBD300F0E7FEFFF7DBFB704700000020F2
:100CBC000C0000201C1B00080C0000202C00002045
:100CCC00FEE7000080B500AF084B1B68074A43F0F5
:100CDC0010031360032000F02BF90F2000F008F82C
:100CEC00FFF76AFF0023184680BD00BF00200240BA
:100CFC0080B582B000AF7860124B1A68124B1B782B
:100D0C0019464FF47A73B3FBF1F3B2FBF3F31846C5
:100D1C0000F035F90346002B01D001230EE07B686F
:100D2C000F2B0AD8002279684FF0FF3000F00BF936
:100D3C00064A7B681360002300E00123184608373D
:100D4C00BD4680BD000000200800002004000020EB
:100D5C0080B400AF054B1B781A46054B1B68134437
:100D6C00034A136000BFBD4680BC704708000020DA
:100D7C002800002080B400AF024B1B681846BD460B
:100D8C0080BC70472800002080B584B000AF78602C
:100D9C00FFF7F0FFB8607B68FB60FB68B3F1FF3FC7
:100DAC0005D00A4B1B781A46FB681344FB6000BF46
:100DBC00FFF7E0FF0246BB68D31AFA689A42F7D8ED
:100DCC0000BF00BF1037BD4680BD00BF080000202B
:100DDC0080B485B000AF78607B6803F00703FB60DC
:100DEC000C4BDB68BB60BA684FF6FF031340BB606B
:100DFC00FB681A02BB68134343F0BF6343F4003330
:100E0C00BB60044ABB68D36000BF1437BD4680BCCE
:100E1C00704700BF00ED00E080B400AF044BDB680E
:100E2C001B0A03F007031846BD4680BC704700BF81
:100E3C0000ED00E080B483B000AF03463960FB7175
:100E4C0097F90730002B0ADB3B68DAB20C4997F9AB
:100E5C0007301201D2B20B4483F800230AE03B683E
:100E6C00DAB20849FB7903F00F03043B1201D2B24A
:100E7C000B441A7600BF0C37BD4680BC704700BFD0
:100E8C0000E100E000ED00E080B489B000AFF86054
:100E9C00B9607A60FB6803F00703FB61FB69C3F17F
:100EAC000703042B28BF0423BB61FB690433062B07
:100EBC0002D9FB69033B00E000237B614FF0FF325A
:100ECC00BB6902FA03F3DA43BB681A407B699A40A8
:100EDC004FF0FF317B6901FA03F3D9437B680B4078
:100EEC00134318462437BD4680BC704780B582B08A
:100EFC0000AF78607B68013BB3F1807F01D30123A5
:100F0C000FE00A4A7B68013B53600F214FF0FF3022
:100F1C00FFF790FF054B00229A60044B07221A60E2
:100F2C00002318460837BD4680BD00BF10E000E026
:100F3C0080B582B000AF78607868FFF749FF00BFDA
:100F4C000837BD4680BD80B586B000AF0346B9609A
:100F5C007A60FB7300237B61FFF75EFF78617A6830
:100F6C00B9687869FFF790FF024697F90F30114680
:100F7C001846FFF75FFF00BF1837BD4680BD80B530
:100F8C0082B000AF78607868FFF7B0FF0346184670
:100F9C000837BD4680BD000080B48BB000AF7860D0
:100FAC00396000237B6200233B6248E101227B6AAB
:100FBC0002FA03F3FB613B681B68FA691340BB61DF
:100FCC00BA69FB699A4240F037813B685B68A34A77
:100FDC0093425ED0A14A934275D8A14A934258D00D
:100FEC009F4A93426FD89F4A934252D09D4A934254
:100FFC0069D89D4A93424CD09B4A934263D89B4AF2
:10100C00934246D0994A93425DD8122B2AD8122B80
:10101C0059D801A252F823F09F100008791000084B
:10102C008B100008CD100008D3100008D310000856
:10103C00D3100008D3100008D3100008D3100008F8
:10104C00D3100008D3100008D3100008D3100008E8
:10105C00D3100008D3100008D3100008811000082A
:10106C0095100008824A934213D02CE03B68DB6851
:10107C003B6229E03B68DB6804333B6224E03B685D
:10108C00DB6808333B621FE03B68DB680C333B6278
:10109C001AE03B689B68002B02D104233B6213E0EF
:1010AC003B689B68012B05D108233B627B68FA697E
:1010BC001A6109E008233B627B68FA695A6103E014
:1010CC0000233B6200E000BFBB69FF2B01D87B68AB
:1010DC0001E07B6804337B61BB69FF2B02D87B6A20
:1010EC009B0002E07B6A083B9B003B617B691A68B2
:1010FC000F213B6901FA03F3DB431A40396A3B6960
:10110C0001FA03F31A437B691A603B685B6803F0CE
:10111C008053002B00F09080564B9B69554A43F04E
:10112C0001039361534B9B6903F00103BB60BB68E4
:10113C00514A7B6A9B08023352F82330FB607B6A6E
:10114C0003F003039B000F2202FA03F3DB43FA685C
:10115C001340FB607B68494A93420DD07B68484A38
:10116C00934207D07B68474A934201D1022304E0A3
:10117C00032302E0012300E000237A6A02F0030259
:10118C0092009340FA681343FB603B497B6A9B08CF
:10119C000233FA6841F823203B685B6803F4801340
:1011AC00002B06D0384B9A683749BB6913438B60C8
:1011BC0006E0354B9A68BB69DB43334913408B60BF
:1011CC003B685B6803F40013002B06D02E4BDA68E7
:1011DC002D49BB691343CB6006E02B4BDA68BB6926
:1011EC00DB4329491340CB603B685B6803F4003355
:1011FC00002B06D0244B5A682349BB6913434B6020
:10120C0006E0214B5A68BB69DB431F4913404B6016
:10121C003B685B6803F48033002B06D01A4B1A68CA
:10122C001949BB6913430B6006E0174B1A68BB697D
:10123C00DB43154913400B607B6A01337B623B68CF
:10124C001A687B6A22FA03F3002B7FF4AFAE00BF5F
:10125C0000BF2C37BD4680BC704700BF0000321069
:10126C0000003110000022100000211000001210AC
:10127C000000111000100240000001400008014065
:10128C00000C0140001001400004014080B483B008
:10129C0000AF78600B467B8013467B707B78002B0D
:1012AC0003D07A887B681A6103E07B881A047B6818
:1012BC001A6100BF0C37BD4680BC704780B586B044
:1012CC0000AF78607B68002B01D101236CE27B6856
:1012DC001B6803F00103002B00F08780924B5B68C6
:1012EC0003F00C03042B0CD08F4B5B6803F00C0346
:1012FC00082B12D18C4B5B6803F48033B3F5803F21
:10130C000BD1894B1B6803F40033002B6CD07B682A
:10131C005B68002B68D1012346E27B685B68B3F500
:10132C00803F06D1804B1B687F4A43F480331360A7
:10133C002EE07B685B68002B0CD17B4B1B687A4AD8
:10134C0023F480331360784B1B68774A23F4802393
:10135C0013601DE07B685B68B3F5A02F0CD1724B5A
:10136C001B68714A43F4802313606F4B1B686E4AF1
:10137C0043F4803313600BE06B4B1B686A4A23F415
:10138C0080331360684B1B68674A23F48023136017
:10139C007B685B68002B13D0FFF7ECFC386108E02E
:1013AC00FFF7E8FC02463B69D31A642B01D90323EF
:1013BC00FAE15D4B1B6803F40033002BF0D014E012
:1013CC00FFF7D8FC386108E0FFF7D4FC02463B6914
:1013DC00D31A642B01D90323E6E1534B1B6803F4A6
:1013EC000033002BF0D100E000BF7B681B6803F0DA
:1013FC000203002B63D04C4B5B6803F00C03002BF7
:10140C000BD0494B5B6803F00C03082B1CD1464BEB
:10141C005B6803F48033002B16D1434B1B6803F03D
:10142C000203002B05D07B681B69012B01D0012323
:10143C00BAE13D4B1B6823F0F8027B685B69DB006B
:10144C00394913430B603AE07B681B69002B20D0B1
:10145C00364B01221A60FFF78DFC386108E0FFF76C
:10146C0089FC02463B69D31A022B01D903239BE169
:10147C002D4B1B6803F00203002BF0D02A4B1B688A
:10148C0023F0F8027B685B69DB00274913430B6090
:10149C0015E0264B00221A60FFF76CFC386108E05F
:1014AC00FFF768FC02463B69D31A022B01D90323D0
:1014BC007AE11D4B1B6803F00203002BF0D17B6813
:1014CC001B6803F00803002B3AD07B689B69002B48
:1014DC0019D0174B01221A60FFF74CFC386108E059
:1014EC00FFF748FC02463B69D31A022B01D90323B0
:1014FC005AE10D4B5B6A03F00203002BF0D0012084
:10150C0000F09AFA1CE00A4B00221A60FFF732FC3A
:10151C0038610FE0FFF72EFC02463B69D31A022B11
:10152C0008D9032340E100BF0010024000004242F2
:10153C00800442429E4B5B6A03F00203002BE9D10C
:10154C007B681B6803F00403002B00F0A6800023CB
:10155C00FB75974BDB6903F08053002B0DD1944B3B
:10156C00DB69934A43F08053D361914BDB6903F001
:10157C008053BB60BB680123FB758E4B1B6803F467
:10158C008073002B18D18B4B1B688A4A43F48073F1
:10159C001360FFF7EFFB386108E0FFF7EBFB024647
:1015AC003B69D31A642B01D90323FDE0814B1B68E3
:1015BC0003F48073002BF0D07B68DB68012B06D121
:1015CC007B4B1B6A7A4A43F0010313622DE07B6864
:1015DC00DB68002B0CD1764B1B6A754A23F0010398
:1015EC001362734B1B6A724A23F0040313621CE0F0
:1015FC007B68DB68052B0CD16D4B1B6A6C4A43F086
:10160C00040313626A4B1B6A694A43F001031362B9
:10161C000BE0674B1B6A664A23F001031362644BB1
:10162C001B6A634A23F0040313627B68DB68002B9C
:10163C0015D0FFF79FFB38610AE0FFF79BFB0246D2
:10164C003B69D31A41F28832934201D90323ABE0B0
:10165C00574B1B6A03F00203002BEED014E0FFF78C
:10166C0089FB38610AE0FFF785FB02463B69D31A18
:10167C0041F28832934201D9032395E04C4B1B6A0B
:10168C0003F00203002BEED1FB7D012B05D1484B5F
:10169C00DB69474A23F08053D3617B68DB69002BFD
:1016AC0000F08180424B5B6803F00C03082B61D087
:1016BC007B68DB69022B46D13F4B00221A60FFF797
:1016CC0059FB386108E0FFF755FB02463B69D31A1A
:1016DC00022B01D9032367E0354B1B6803F0007321
:1016EC00002BF0D17B681B6AB3F5803F08D1304BDF
:1016FC005B6823F400327B689B682D4913434B6075
:10170C002B4B5B6823F474127B68196A7B685B6AE9
:10171C000B43274913434B60274B01221A60FFF7F9
:10172C0029FB386108E0FFF725FB02463B69D31A19
:10173C00022B01D9032337E01D4B1B6803F0007308
:10174C00002BF0D02FE01C4B00221A60FFF712FB8D
:10175C00386108E0FFF70EFB02463B69D31A022BF7
:10176C0001D9032320E0124B1B6803F00073002BFC
:10177C00F0D118E07B68DB69012B01D1012313E068
:10178C000B4B5B68FB60FB6803F480327B681B6A65
:10179C009A4206D1FB6803F470127B685B6A9A422A
:1017AC0001D0012300E0002318461837BD4680BD48
:1017BC0000100240007000406000424280B584B0CE
:1017CC0000AF786039607B68002B01D10123D0E039
:1017DC006A4B1B6803F007033A689A4210D9674BAF
:1017EC001B6823F0070265493B6813430B60634B8E
:1017FC001B6803F007033A689A4201D00123B8E052
:10180C007B681B6803F00203002B20D07B681B68ED
:10181C0003F00403002B05D0594B5B68584A43F482
:10182C00E06353607B681B6803F00803002B05D052
:10183C00534B5B68524A43F460535360504B5B68A4
:10184C0023F0F0027B689B684D4913434B607B6827
:10185C001B6803F00103002B40D07B685B68012BF5
:10186C0007D1474B1B6803F40033002B15D1012320
:10187C007FE07B685B68022B07D1414B1B6803F050
:10188C000073002B09D1012373E03D4B1B6803F05F
:10189C000203002B01D101236BE0394B5B6823F071
:1018AC0003027B685B68364913434B60FFF762FAAF
:1018BC00F8600AE0FFF75EFA0246FB68D31A41F2C1
:1018CC008832934201D9032353E02D4B5B6803F01C
:1018DC000C027B685B689B009A42EBD1274B1B6820
:1018EC0003F007033A689A4210D2244B1B6823F08A
:1018FC00070222493B6813430B60204B1B6803F023
:10190C0007033A689A4201D0012332E07B681B68D6
:10191C0003F00403002B08D0194B5B6823F4E0623E
:10192C007B68DB68164913434B607B681B6803F0CC
:10193C000803002B09D0124B5B6823F460527B68C0
:10194C001B69DB000E4913434B6000F021F8024683
:10195C000B4B5B681B0903F00F030A49CB5C22FAA3
:10196C0003F3094A1360094B1B681846FFF7C0F9CB
:10197C00002318461037BD4680BD00BF0020024032
:10198C0000100240F01A00080000002004000020A3
:10199C0080B487B000AF0023FB600023BB60002342
:1019AC007B6100237B6000233B611E4B5B68FB600B
:1019BC00FB6803F00C03042B02D0082B03D027E0A8
:1019CC00194B3B6127E0FB689B0C03F00F03174A94
:1019DC00D35C7B60FB6803F48033002B10D0114B7D
:1019EC005B685B0C03F00103114AD35CBB607B6842
:1019FC000D4A02FB03F2BB68B2FBF3F37B6104E01C
:101A0C007B680C4A02FB03F37B617B693B6102E060
:101A1C00054B3B6100BF3B6918461C37BD4680BC7B
:101A2C00704700BF0010024000127A00001B000833
:101A3C00101B000800093D0080B485B000AF786031
:101A4C000A4B1B680A4AA2FB03235B0A7A6802FB57
:101A5C0003F3FB6000BFFB685A1EFA60002BF9D140
:101A6C0000BF00BF1437BD4680BC7047000000208B
:101A7C00D34D621070B500260C4D0D4C641BA41098
:101A8C00A64209D100F022F800260A4D0A4C641B2C
:101A9C00A410A64205D170BD55F8043B98470136F9
:101AAC00EEE755F8043B98470136F2E7141B0008A3
:101ABC00141B0008141B0008181B000803460244E2
:101ACC00934200D1704703F8011BF9E7F8B500BF4A
:101ADC00F8BC08BC9E467047F8B500BFF8BC08BC03
:041AEC009E4670475B
:101AF00000000000000000000102030406070809BE
:101B000002030405060708090A0B0C0D0E0F10103E
:041B100001020000CE
:041B14003101000893
:041B18000D010008B3
:0C1B1C0000127A00100000000100000020
:0400000508000C855E
:00000001FF
